:020000040800F2
:10000000F81A00208D020008AF2F00086B2A0008A4
:10001000AD2F0008CB160008713600080000000064
:10002000000000000000000000000000F5010008D2
:10003000031700080000000039020008153100080D
:10004000A7020008A7020008A7020008A7020008EC
:10005000A7020008A7020008A7020008A7020008DC
:10006000A7020008A7020008A7020008A7020008CC
:10007000A7020008A7020008A7020008A7020008BC
:10008000CD160008A7020008A7020008A702000872
:10009000A7020008A7020008A7020008A70200089C
:1000A000A7020008A1310008A7020008A702000863
:1000B000A7020008A7020008A7020008A70200087C
:1000C000A7020008A7020008A7020008A70200086C
:1000D000A7020008A7020008A7020008A70200085C
:1000E000A7020008A7020008A702000800F002F813
:1000F00000F070F80AA090E8000C82448344AAF152
:100100000107DA4501D100F065F8AFF2090EBAE84F
:100110000F0013F0010F18BFFB1A43F0010318473B
:1001200010590000305900000A444FF0000C10F83C
:10013000013B13F0070408BF10F8014B1D1108BF65
:1001400010F8015B641E05D010F8016B641E01F805
:10015000016BF9D113F0080F1EBF10F8014BAD1C55
:100160000C1B09D16D1E58BF01F801CBFAD505E073
:1001700014F8016B01F8016B6D1EF9D59142D6D3CD
:10018000704700000023002400250026103A28BFF5
:1001900078C1FBD8520728BF30C148BF0B607047F9
:1001A000662905F02483642900F0A48000207047AC
:1001B0001FB500F0F3FC04000020002105F0BEF89C
:1001C000401C60600020002105F0A2F8E0601FBD27
:1001D00010B510BD00F02EFE1146FFF7E9FF03F049
:1001E00069FB00F05AFE03B4FFF7F2FF03BC00F016
:1001F0009DFE0000224B19680868B0E8F00F80F3FC
:100200000988BFF36F8F4FF0000080F311884EF024
:100210000D0E70470000000006480068006880F37B
:10022000088862B661B6BFF34F8FBFF36F8F00DFF0
:1002300000BF00BF08ED00E0EFF30980BFF36F8F50
:100240000F4B1A6820E9F00F106008B54FF050000E
:1002500080F31188BFF34F8FBFF36F8F04F0FCFA68
:100260004FF0000080F31188BDE808401968086865
:10027000B0E8F00F80F30988BFF36F8F704700BFBD
:1002800078030020EFF3058070470000094880479D
:1002900009480047FEE7FEE7FEE7FEE7FEE7FEE768
:1002A000FEE7FEE7FEE7FEE704480549054A064B80
:1002B000704700009F310008ED000008F81400208E
:1002C000F81A0020F8160020F81600200FB41CB50C
:1002D000074B06AA7B4469460090059800F001FC94
:1002E0000020694600F010FC1CBC5DF814FB000007
:1002F000310800002DE9F0410646002410687529F8
:10030000314616A510D0AFF30080002802DA404233
:1003100013A507E031688A0701D512A502E0490755
:1003200004D511A5012401E0AFF3008000210A22C9
:1003300006F1240709E0B0FBF2FCB0FBF2F302FB8C
:100340001C00303078541846491C0028F3D123464D
:100350002A463046BDE8F04100F056B900000000E2
:100360002D0000002B000000200000002DE9F05FB0
:10037000894604464FF0000ADFF824B1FB44C0F878
:1003800020A02046E168884700287DD0252806D097
:10039000D4E901219047206A401C2062F1E7002542
:1003A0005F462046E16888472028064607DB312E55
:1003B00005D2B81910F8200C08B10543F1E7A807D9
:1003C00001D525F00405C4F81CA00027C4F818A026
:1003D0002A2E09D0304603F070F938B304EB8708B1
:1003E000303EC8F8186019E059F8041B204604EBA9
:1003F00087029161E1688847012F064618D1E069BC
:10040000002820DA25F020051DE0D8F8180000EBC0
:10041000800006EB40003038C8F818002046E1683C
:100420008847064603F049F90028EED1012F0AD08B
:100430002E2E08D12046E16888477F1C0646022FF1
:1004400045F02005C4DBA069002803DA404245F0EE
:100450000105A061E80701D025F01005A6B1A6F1BD
:100460004100192802D8203645F400654A46314635
:10047000204625604D46FFF793FE60B1012807D066
:10048000ED1D25F0070000E007E000F1080978E71E
:1004900005F1040975E730467AE7206ABDE8F09F68
:1004A000DC55000070B5064600F0AAF80468054661
:1004B00030460A22002100F02CFB2C6070BD032A7C
:1004C00040F2308010F0030C00F0158011F8013B71
:1004D000BCF1020F624498BF11F801CB00F8013B58
:1004E00038BF11F8013BA2F1040298BF00F801CB1C
:1004F00038BF00F8013B11F0030300F02580083AF3
:10050000C0F0088051F8043B083A51F804CBA0E849
:100510000810F5E7121D5CBF51F8043B40F8043B9E
:10052000AFF30080D20724BF11F8013B11F801CBD3
:1005300048BF11F8012B24BF00F8013B00F801CBA4
:1005400048BF00F8012B704710B5203AC0F00B806F
:10055000B1E81850203AA0E81850B1E81850A0E8C7
:100560001850BFF4F5AF5FEA027C24BFB1E8185021
:10057000A0E8185044BF18C918C0BDE810405FEA91
:10058000827C24BF51F8043B40F8043B08BF70470D
:10059000D20728BF31F8023B48BF11F8012B28BF12
:1005A00020F8023B48BF00F8012B70474FF00002D3
:1005B00000B5134694469646203922BFA0E80C5059
:1005C000A0E80C50B1F12001BFF4F7AF090728BF34
:1005D000A0E80C5048BF0CC05DF804EB890028BFB0
:1005E00040F8042B08BF704748BF20F8022B11F0D9
:1005F000804F18BF00F8012B704770477047704755
:1006000000487047981400202DE9F0470D469946A0
:100610009246044600F124080168880604D5E06982
:1006200021F01001216000E00120A84201DD471BFC
:1006300000E00027A1697A1902EB0900081AA061FD
:100640002078C00602D42046AFF30080002608E0E0
:10065000D4E901211AF806009047206A401C761C54
:1006600020624E45F4DB2078C0060AD52046AFF361
:10067000008006E0D4E9012130209047206A401C28
:100680002062381EA7F10107F4DC07E0D4E901215C
:1006900018F805009047206A401C2062281EA5F12A
:1006A0000105F3DC2046AFF300802078000602D578
:1006B0000220BDE8F0870120FBE770472DE9FF4FDE
:1006C0000C461E464FF0FF378BB0D2E90001DDF833
:1006D00060800A908A46C1F30A5505B93D4600215B
:1006E00008464FF00000BAF1000F00F4400005DAB0
:1006F00000EB80004FF4400101EA50004FEA9059AE
:10070000B9F1010F00DDB9460A9850EA4A000ED04F
:1007100044F61050A5F2FF3545432F14B8F1000FF1
:100720001ED07542291E1EDDC9F100021CE0B8F181
:10073000010F4FF0000001D0302103E0F24305E04B
:100740002154401CB042FBDB3046002200212154E2
:100750000B99C1F80880C1E900200FB0BDE8F08F07
:10076000BD1B6D1CDEE74A4600DA694206A800F0B0
:10077000EFFA06AB93E8070003AB83E807005046A7
:100780000A9900F0DAFB8DE80700A0F500501F3849
:1007900000900398002D0ADD42F21F014A460844EA
:1007A000002303A90390684600F043FE09E0A0F58A
:1007B00000504A461F38002303A90390684600F002
:1007C0004DFE8DE807000004000C03D04FF0FF3011
:1007D000410800E01046B8F1000F03D0002200925B
:1007E00015461EE0751E05D400F0DCF93032625566
:1007F0006D1EF9D5B3460122084302D000227F1CAA
:1008000004E02078302801D100227F1E002A0997B9
:1008100084D01DE0112D07DA00F0C4F930326255A2
:100820006D1C50EA0102F5D1084302D00098C8B10E
:100830000EE00021681E05E0235C625C63542254D4
:10084000401E491C8142F7DBAB46A81B401E0990A5
:10085000002004F80B000B98099AC0F80880C0E942
:10086000002B7AE711264FF0000857E72DE9F04FEB
:1008700088460446D21D22F0070191B0D1E900015B
:10088000CDE90A0102F0F5FE02460B98C00F01D037
:100890002D2007E02068810701D52B2002E02021D0
:1008A00001EAC000032A099001D0072A05DB0346AC
:1008B0004146204600F0BCF90BE12078800601D5C6
:1008C000E06900E00620B8F1650F814606D0B8F176
:1008D000660F18D0B8F1670F70D131E00020B9F180
:1008E000110F009001DB112301E009F101030AAAB5
:1008F00001A90CA8FFF7E2FEDDE90C70002609F162
:100900000105834647E001204B4600904FF0004729
:100910000AAA01A90CA8FFF7D1FEDDE90DB00C99D8
:100920005D46002610B909F101000D18B9EB05006C
:1009300003D4C0F1FF3609F10105A5EB09002BE056
:10094000B9F1010F01DA4FF001090020B9F1110FDF
:100950000090484601DD112300E003460AAA01A9E0
:100960000CA8FFF7ABFEDDE90C704D460026834670
:10097000207800070AD4AB4500DA5D4601A8012DB6
:1009800004DD411911F8011C302907D04F4502DA66
:1009900017F1040F04DA012082460FE06D1EEEE726
:1009A000002F02DCED1B3E4403E0781CA84200DD72
:1009B0007D1CB81B00F1010A4FF0004720780007AA
:1009C00003D4AA4501DB4FF0FF3A0021B7F1004FF5
:1009D0000DF143088DF8431024D002202B23002F63
:1009E00001DA7F422D230A21021EA0F1010000DC62
:1009F0005FB197FBF1FC97FBF1F201FB1C7C174602
:100A00000CF1300C08F801CDEEE7A8F101000370FD
:100A10002188090501D5452100E06521A0F10108E3
:100A200000F8011C09980FA9A1EB0807FF1D00B1F0
:100A30000120411901EBEA70A1693844081A401EEF
:100A4000A0612078C00602D42046AFF30080099848
:100A500028B1D4E901219047206A401C2062207807
:100A6000C00622D52046AFF300801EE0002E04DB36
:100A7000B34502DD01A8805D00E03020D4E901210A
:100A80009047206A401C2062761CAAF101005FEAB0
:100A9000000A0AD100F082F8C0680168405CD4E91D
:100AA00001219047206A401C2062281EA5F1010503
:100AB000DCDC07E0D4E9012118F8010B9047206A3B
:100AC000401C2062381EA7F10107F3DC2046AFF37B
:100AD0000080032011B041E601694A1C02610878D8
:100AE000704700B58FB0CDE901310021059105496E
:100AF0007944CDE9031011466846FFF737FC0FB083
:100B000000BD0000E5FFFFFF0A6802F8010B0A6064
:100B100070472DE9F04791460F468046044600266F
:100B200014F8015B2DB100F031F80068405DC0079A
:100B3000F6D12B2D02D02D2D18D0641E4A463946F1
:100B4000204600F0B5F827B13968A14201D1C7F8B5
:100B500000804FF0020471050BD54042002803DDF0
:100B6000FFF74EFD0460A007BDE8F08746F48066FD
:100B7000E4E70028F8DAFFF743FD04606FF0004077
:100B8000F2E70000004870479814002010B500F00C
:100B900005F8001D10BD00BFA547000000487047C4
:100BA000B814002030B5B0F10A024FEA900E71F18E
:100BB00000034EEA817EB0EB0E0061EB91014FEA3B
:100BC000101E4EEA017E10EB0E0041EB11114FEAB0
:100BD000102E4EEA016E10EB0E0041EB11214FEA90
:100BE000104E4EEA014E10EB0E0041EB1141401841
:100BF00041F100014FEAD00040EA41704FEAD101D3
:100C000010EB80054FEA810444EA907444EB010440
:100C10006D1944EB0404521BA3414FF0000348BF7D
:100C20000A3200D530BD401C41F1000130BD00004A
:100C30002DE9F0411F46044603260168072A01F406
:100C4000006004DB08B116A505E016A503E008B1B5
:100C500015A500E015A521F010002060A069C01EB8
:100C6000A0610FB1401EA0612046AFF300804FB1DC
:100C7000D4E9012138469047206A401C2062C01CFC
:100C8000206206E0206AFAE7D4E9012115F8010B99
:100C90009047761EF8D22046AFF30080BDE8F08181
:100CA0004E414E006E616E00494E4600696E660010
:100CB0002DE9F05F824615468B4600270AF10104B4
:100CC000B9460078302801D09DB113E014F8010B2B
:100CD0000127782803D0582801D045B10AE00DB18A
:100CE000102D07D1002714F8010B102502E008256C
:100CF00000E00A250026B0460EE005FB080005FBD3
:100D000006F101271FFA80F801EB1046B6F5803F87
:100D100000D3B94614F8010B294600F0B0F80028BA
:100D2000EBDABBF1000F05D00FB1641E00E05446B2
:100D3000CBF80040B9F1000F06D0FFF761FC0221AB
:100D40000160C81EBDE8F09F48EA0640FAE70000CF
:100D50002DE9F047814616468AB0354878440DC8DB
:100D60008DE80D0032487844801C03AC0DC884E83F
:100D70000D0041F69B300844372190FBF1F290FBC7
:100D8000F1F5A5F1800501FB12041B3C02D564427C
:100D9000012000E00020DFF898A080460027FA44F8
:100DA000AAF1BE0A0EE0E0070AD03246684607EB19
:100DB000470101230AEB810100F050FB8DE8070099
:100DC00064107F1C002CEED1194F7F44AE3F19E018
:100DD000E80715D007EB04100DF1180A90E80E0093
:100DE0008AE80E00C068F04201D198190890324696
:100DF000012306A903A800F031FB03AB83E8070039
:100E00006D10641C002DE3D14FF00103324669469A
:100E1000B8F1000F03A802D000F00BFB01E000F0D6
:100E20001DFBC9E90001C9F808200AB0BDE8F08738
:100E30008C4C00007546FFF7A5FEAE4605006946DE
:100E4000534620F00700854618B020B5FFF72CFA6E
:100E5000BDE820404FF000064FF000074FF00008BB
:100E60004FF0000B21F00701AC46ACE8C009ACE83C
:100E7000C009ACE8C009ACE8C0098D4670473A2803
:100E800000D2303820F02002412A01D3A2F13700ED
:100E9000884201D34FF0FF30704710B50446AFF3DE
:100EA00000802046BDE81040FFF79DB94FF0013C9F
:100EB00050F8042B51F8043B9A4221D1A2EB0C03C9
:100EC000934313EACC1317D150F8042B51F8043B89
:100ED0009A4215D1A2EB0C03934313EACC130BD126
:100EE00050F8042B51F8043B9A4209D1A2EB0C03B1
:100EF000934313EACC13DBD04FF00000704700BFE0
:100F0000D01A01BAB1FA81F101F0180122FA01F008
:100F1000CB40C1F12001DBB2C0B2C01A2CFA01F300
:100F2000D11A914311EAC311E6D170470149182043
:100F3000ABBEFEE72600020070475FEA400C08BF28
:100F400091F0000F4FEA8C234FEAC12243EA51513E
:100F50004FEA1C5018BF00F5F0404FEA300018BFB0
:100F600041F000415FEA6C5C00F02980BCF1FF3F7A
:100F700008BF40F080407047130C06BF12044FF0CA
:100F8000100C4FF0000C130E04BF12020CF1080CF1
:100F9000130F04BF12010CF1040C930F04BF920055
:100FA0000CF1020CD30F04BF52000CF1010C1146DE
:100FB0004FF00002A0F11F00A0EB0C00704711F0F1
:100FC000004F08BF704731F000413FF4D5AF0B0C24
:100FD00006BF09044FF0100C4FF0000C0B0E04BFBD
:100FE00009020CF1080C0B0F04BF09010CF1040CF1
:100FF0008B0F04BF89000CF1020CCB0F04BF49001A
:101000000CF1010CCCF12003A0EB0C0022FA03F34D
:1010100002FA0CF241EA030100F10100704720F0EE
:101020007F4C80EA030023F07F47ACEB070303F516
:101030007C5300F0004003F1FF032DE980494FEAA3
:10104000154B09B44FEA144325EA0B4E24EA034832
:101050000FF2042606EB132749083E785FEA3202B6
:1010600003FB0667C7F5000707FB06F64FEA543790
:101070004FEAD64606F1020607FB066CCCF1005C8F
:101080004FEA1C472CEA074C07FB06F40CFB06F55D
:1010900004EB15464FEA961634BF00204FF000408F
:1010A0004FEAD13706FB07FC4FEA1C4C0CFB0BF751
:1010B000D21B03FB0CF761EB07010CFB0EF7B0EB47
:1010C000074072EB17420CFB08F734BFA2EB074254
:1010D000B2EB074261EB17414FEA0C444FEA91072C
:1010E00006FB07FC4FEA1C4C0CFB0BF7B0EBC740B0
:1010F00072EB573203FB0CF734BFA2EBC742B2EBE3
:10110000C74261EB57310CFB0EF7B0EBC70072EB37
:1011100057720CFB08F734BFA2EBC702B2EBC70251
:1011200061EB5771039F4FEA816141EA921104EB31
:10113000CC044FEAD1374FEA826206FB07FC42EA51
:1011400090124FEA80604FEA1C4C0CFB0BF7D21B4D
:1011500003FB0CF761EB07010CFB0EF7B0EB07404C
:1011600072EB17420CFB08F734BFA2EB0742B2EB5D
:10117000074261EB17414FEA8C554FEA910704EBA8
:101180009C2406FB07FC4FEA1C4C0CFB0BF7B0EB56
:10119000C74072EB573203FB0CF734BFA2EBC742D8
:1011A000B2EBC74261EB57310CFB0EF7B0EBC70057
:1011B00072EB57720CFB08F734BFA2EBC702B2EB1D
:1011C000C70261EB577115EB4C254FEA816141EA8B
:1011D00092114FEA82624FEAD13742EA901206FB3F
:1011E00007FC44F100044FEA80604FEA1C4C0CFB02
:1011F0000BF7D21B03FB0CF761EB07010CFB0EF79F
:10120000B0EB074072EB17420CFB08F734BFA2EBC0
:101210000742B2EB074261EB174115EB1C154FEA91
:10122000813141EA92414FEA823242EA90424FEAEA
:1012300080304FEA0C7644F1000448EA03434EEA5A
:101240000B484FF0000EB2EB080C71EB030724BF04
:10125000624639464EEB0E0E4FF0000B001852411D
:1012600049414BEB0B0BB2EB080C71EB03077BF125
:10127000000B24BF624639464EEB0E0E4FF0000BBA
:101280000018524149414BEB0B0BB2EB080C71EBD0
:1012900003077BF1000B24BF624639464EEB0E0E6E
:1012A00051EA020718BF46F0010616EB0E7655F11B
:1012B000000254F1000103D5BDE88901BDE80088B2
:1012C000BDE88901BDE80048B619524141EB010172
:1012D000A3F10103704780807F7E7D7C7B7A7978E3
:1012E000777676757473727171706F6E6E6D6C6CEB
:1012F0006B6A6A696868676666656464636362618D
:101300006160605F5F5E5E5D5D5C5C5B5B5A5A590D
:101310005958585757565655555554545353525279
:101320005251515050504F4F4F4E4E4D4D4D4C4CD1
:101330004C4B4B4B4A4A4A4949494848484747471A
:101340004746464645454544444444434343434257
:10135000424242414141002B9C4630D477002BD081
:101360001CB54FEA370703B44FF010004FF01001DF
:10137000BAF1000F06D0BCF1000FDCBF40F008004E
:1013800040F008014FF000000FBCBDE810400BF129
:10139000010BBBF1010F08BF5FEA170722BF12F173
:1013A000010211F101014FF0004143F1000300F08F
:1013B000004043EA00007047F9D35708D0E746EAF7
:1013C000064613F1400F4FEA16461FDD13F1200FBA
:1013D000DFBF16430A46002120335B42BED0C3F173
:1013E000200746EA064602FA07F74FEA164646EA9B
:1013F0000706C3F1200722FA03F201FA07F721FAE0
:1014000003F14FF0000342EA0702A7E746EA0206AB
:1014100046EA06464FEA164646EA0106BCBF46EAD9
:101420000646360C4FF000034FF000024FF000016B
:1014300094E72DE9804C9A46934670B491E83800C1
:1014400007C831EA400C48BF34EA430C03D5FFF724
:10145000E6FDFFF780FFF0BCBDE8008C2DE9804C75
:101460009A46934670B491E8380007C810F0804F50
:1014700008BF13F0804F03D100F005F8FFF76BFFB2
:10148000F0BCBDE8008C20F07F4780EA030023F029
:101490007F4C07EB0C03A3F57C5300F00040A3F155
:1014A000FE0392F0000F00F0B38095F0000F00F003
:1014B00077802DE901494FEA11404FEA144621EAAD
:1014C000004800FB06FC24EA064708FB06F607FB7B
:1014D00008F800FB07F718EB06484CEB164C4FEAF0
:1014E000124B18EB07484FEA15464CEB174022EA1F
:1014F0000B4E0BFB06FC25EA06470EFB06F607FB28
:101500000EFE0BFB07F71EEB064E4CEB164C4FF096
:1015100000061EEB074E4CEB174B18EB0B0840F187
:10152000000018EB0E0B58EB000840F100008F1A7A
:101530004FF000013CBFC943661B14BFB5EB040C60
:1015400000213CBFC943F61B4FEA17444EEA8E0EFA
:1015500027EA04454FEA1C4704FB07622CEA074CC4
:1015600005FB07F70CFB05F604FB0CFC16EB074626
:1015700042EB174216EB0C4642EB1C421BEB0606F5
:1015800058EB0202414146EA9E0601D5BDE80189B9
:10159000B619524141EB0101A3F10103BDE80189F4
:1015A0004FEA14454FEA114724EA054621EA074C61
:1015B00005FB07F406FB07F70CFB06F105FB0CFC2B
:1015C00011EB074144EB17444FEA124711EB0C4172
:1015D00044EB1C4422EA074C05FB07F206FB07F725
:1015E0000CFB06F605FB0CFC16EB074642EB17421C
:1015F00016EB0C4642EB1C456A1854F1000148BF3B
:101600007047B619524141EB0101A3F10103704744
:1016100095F0000F37D04FEA11424FEA144721EA04
:10162000024624EA074C02FB07F106FB07F70CFB16
:1016300006F402FB0CFC14EB074441EB17414FEAA4
:10164000154714EB0C4441EB1C4125EA074C02FB07
:1016500007F506FB07F70CFB06F602FB0CFC16EB86
:10166000074645EB174516EB0C4645EB1C42121995
:1016700051F1000148BF7047B619524141EB0101D9
:10168000A3F1010370474FEA14454FEA114724EADA
:10169000054621EA074C05FB07F106FB07F70CFBA3
:1016A00006F24FF0000605FB0CFC12EB074241EB83
:1016B000174112EB0C4251EB1C4148BF7047921886
:1016C00041EB0101A3F101037047FEE7014800F07F
:1016D0001BB80000C804002030B590F84050012429
:1016E000AC40C56B6C60046863604368102B036892
:1016F00003D099600068C26030BD9A600068C16024
:1017000030BD704772B6FEE72DE9F05FC16B0C6823
:1017100001680B68D0F840C0042202FA0CF2494D6F
:10172000DFF824A1494E4A4FDFF828B1DFF828E15D
:1017300022422CD05A072AD50A68920603D40A6896
:1017400022F004020A600168A94201D1042219E0D2
:10175000514501D1402215E0B14202D14FF48062DF
:1017600010E0B94202D14FF480420BE0594502D15A
:101770004FF4802206E0714502D14FF4800201E06F
:101780004FF080622F4908394A60C16A3BE04FF050
:10179000020808FA0CF818EA040F4FF000094FF09D
:1017A000010235D05FEA837832D50B689B0605D4F9
:1017B0000B6823F00A030B6080F821200168A9421E
:1017C00001D1022219E0514501D1202215E0B14298
:1017D00002D14FF4007210E0B94202D14FF400522E
:1017E0000BE0594502D14FF4003206E0714502D1B9
:1017F0004FF4001201E04FF00072124908394A60BC
:1018000080F82090816A00291AD0BDE8F05F08476F
:10181000082505FA0CF5254212D01B0710D50B68D8
:1018200023F00E030B6090F84010C36B02FA01F135
:101830005960826380F8212080F82090016BE2E7F4
:10184000BDE8F09F080002401C000240300002404A
:1018500044000240580002406C00024030B528B3FA
:1018600008C8134914221944B1FBF2F18900C1637D
:1018700010498163022141771A6843F6F0718A4367
:10188000D0E900142143D0E902452C4321430469E7
:101890002143446921438469214311431960002194
:1018A0004163012242770177084630BD012030BDF7
:1018B000F8FFFDBF0000024070B5044690F820001C
:1018C000002501280CD0012084F8200094F8216024
:1018D0000020012E06D084F820000225284670BD85
:1018E000022070BD022684F82160A063206806688B
:1018F00026F0010606602046FFF7EEFEE06A0028AB
:101900002068016802D041F00E0106E021F00401D8
:1019100001602068016841F00A01016020680168E7
:1019200041F001010160D9E72DE9F84FDFF8B891E6
:10193000002409F1040A0AF1040B23460F270BF1D6
:10194000040EC9E00125A5402A40AA427DD1674E78
:10195000D1F804C0ACEB0608B44532D014DCBCF1BD
:10196000030F3AD009DCBCF1000F2AD0BCF1010F03
:101970001CD0BCF1020F31D11DE0BCF1110F17D00A
:10198000BCF1120F2AD119E0B8F5881F19D006DC76
:10199000B8F5803F15D0B8F5801F1FD111E0B8F51C
:1019A000001F0ED0B8F5041F18D10AE0CB6815E06F
:1019B000CB681B1D12E0CB6808330FE0CB680C33FB
:1019C0000CE08B682BB1012B4FF0080303D045616D
:1019D00004E0042302E0056100E00023FF2A01D8AF
:1019E000064601E000F104064FEA840501D9A5F19D
:1019F0002005D6F8008007FA05FC28EA0C0803FA4F
:101A000005F548EA0508C6F800804D68ED0062D586
:101A1000374DAE6946F00106AE61AD6924F00306AC
:101A200005F001050095334D06EB050CDCF8085078
:101A3000A607360F07FA06F825EA0805DFF8B8808A
:101A4000404503D14FF0000817E044E0DFF8AC80D8
:101A5000404502D14FF001080FE0DFF8A480404577
:101A600002D14FF0020808E0DFF89880404502D12B
:101A70004FF0030801E04FF0040808FA06F848EABE
:101A80000508CCF808804D68D9F80060ED034D4694
:101A900001D5164300E096432E604D68DAF80060E9
:101AA000AD03554601D5164300E096432E604D68C0
:101AB000DBF80060ED025D4601D5164300E0964379
:101AC0002E604D68DEF80060AD02754601D5164304
:101AD00000E096432E60641C0D682A46E5407FF4C2
:101AE00031AFBDE8F88F0000000401400000111084
:101AF000001002400000014000080140000C0140BD
:101B000000100140001401408068084000D001200E
:101B100070470AB1016170470904FBE7014880681A
:101B20007047000068030020024881680278114471
:101B30008160704768030020074810B5016841F0D4
:101B400010010160032000F095F80F2000F006F866
:101B500000F03EF8002010BD0020024000B5014614
:101B600087B00022192000F065F8192000F054F821
:101B70001348816941F400618161806905A900F41D
:101B800000600690684600F01DF900F04BF90D4921
:101B90000D4AB0FBF1F10D48491E0260416040F270
:101BA000E7320021C0E90321816000F047FB10B15A
:101BB000012007B000BD054800F0B4FBF9E70000C4
:101BC0000010024040420F00002C0140600700203E
:101BD0000F4808B5816941F001018161816901F017
:101BE00001010091C16941F08051C161C0690022C9
:101BF00000F0805000900F21901E00F01BF8054867
:101C0000416821F0E06141F00071416008BD0000D1
:101C10000010024000000140002809DB00F01F0214
:101C2000012191404009800000F1E020C0F800113E
:101C300070470000F0B40E4B1B680C46C3F3022340
:101C4000C3F10705042D00D90425191D072901D268
:101C5000002300E0DB1E012606FA05F1491E2140A3
:101C600099409E40761E16403143F0BC01F015BDF0
:101C70000CED00E0064900F0070208684FF6FF038C
:101C8000184040EA0220034A1043086070470000F1
:101C90000CED00E00000FA052DE9F0470F460500C5
:101CA00061D0434E306800F00700B84209D2306876
:101CB00020F0070038433060306800F00700B84279
:101CC00051D128683B4C810712D5400703D5606885
:101CD00040F4E06060602878000703D5606840F455
:101CE000605060606068A96820F0F00008436060A0
:101CF0002878C00728D06868012810D021680228F9
:101D000010D0890700292EDA616821F00301014310
:101D10006160FFF703FF804641F288390DE02168DA
:101D20008903EFE78901EDE7FFF7F8FEA0EB080173
:101D3000494502D90320BDE8F0876068696800F072
:101D40000C00B0EB810FEFD1306800F00700B84213
:101D50000BD9306820F0070038433060306800F05D
:101D60000700B84201D00120E5E72878400705D5F3
:101D70006068E96820F4E060084360602878000744
:101D800006D56068296920F4605040EAC1006060AF
:101D900000F058F86168084AC1F30311515CC8406B
:101DA0000649086006480068FFF7D8FE0020C2E731
:101DB0000020024000100240445900087403002033
:101DC0006C0300200F2202600C4A536803F00303E7
:101DD0004360536803F0F0038360536803F4E063E7
:101DE000C36052684FF4E06303EAD2020261044820
:101DF000006800F007000860704700000010024013
:101E0000002002400448054900684968044AC1F3BB
:101E10000221515CC840704774030020001002404A
:101E2000545900080448054900684968044AC1F348
:101E3000C221515CC840704774030020001002406A
:101E40005459000812A185B00FC98DE80F0014A0E5
:101E5000144A006804905168134801F00C03042BE5
:101E600010D0082B0ED1C1F38343C9031DF8030022
:101E70000AD5516804AAC1F34041515C0A4A504353
:101E8000B0FBF1F005B0704708494843FAE700009D
:101E900002030405060708090A0B0C0D0E0F1010AB
:101EA000010200000010024000127A0000093D000B
:101EB0002DE9F84F040070D02078C04DC00749D0FC
:101EC0006868C0F38100012807D06868C0F381000A
:101ED000022809D16868C00306D52868800339D56F
:101EE00060680028E7D035E06068B0F5803F0BD02F
:101EF00010B1B0F5A02F11D0286820F480302860F0
:101F0000286820F4802002E0286840F480302860AF
:101F1000606890B1FFF702FE06460AE0286840F4C8
:101F200080202860F0E700BFFFF7F8FD801B6428E1
:101F300073D828688003F7D50CE0FFF7EFFD06465D
:101F400005E000BFFFF7EAFD801B6428F0D8286891
:101F50008003F7D420789A4E80074FF001094FF0A4
:101F6000000839D5686810F00C0F07D06868C0F316
:101F70008100022809D16868C00306D42868800758
:101F800014D52069012808D110E02069B0B1C6F845
:101F90000090FFF7C3FD074605E00AE1FFF7BEFD2D
:101FA000C01B0228C4D828688007F7D52868616953
:101FB00020F0F80040EAC10028600DE0C6F800807B
:101FC000FFF7ACFD074604E0FFF7A8FDC01B0228A1
:101FD00023D828688007F7D4207800072CD57948C3
:101FE000A169D9B1C0F80090FFF798FD074604E059
:101FF000FFF794FDC01B02280FD8686A8007F7D549
:1020000071484FF4FA510068B0FBF1F0009000BF46
:102010000098411E0091FAD20EE080E0C0F80080E6
:10202000FFF77CFD074604E0FFF778FDC01B0228A0
:1020300075D8686A8007F7D42078400760D5E869CA
:102040000027C00008D4E86940F08050E861E869E2
:10205000012700F0805000905C480168C90513D446
:102060000168834641F480710160FFF757FD8246A5
:1020700006E000BFFFF752FDA0EB0A0064284ED82F
:10208000DBF80000C005F5D5E06801280AD008B1EA
:10209000052813D0286A20F001002862286A20F061
:1020A000040002E0286A40F001002862E06841F282
:1020B000883B98B1FFF732FD82460BE0286A40F07A
:1020C00004002862EEE700BFFFF728FDA0EB0A013D
:1020D00059455AD8286A8007F6D50CE0FFF71EFD4F
:1020E000824605E0FFF71AFDA0EB0A0159454CD8DE
:1020F000286A8007F6D41FB1E86920F08050E861B3
:10210000E06988B36968C1F38101022944D00228DB
:10211000C6F8608004D0FFF701FD044638E034E0E3
:10212000FFF7FCFC074604E0FFF7F8FCC01B0228A1
:102130002BD828688001F7D4206AB0F5803F05D1FC
:102140006868A16820F4003008436860D4E9080199
:102150000843696821F4741108436860C6F8609008
:10216000FFF7DCFC044606E025E000BFFFF7D6FCE5
:10217000001B022809D828688001F7D51BE000BFA2
:10218000FFF7CCFC001B022802D90320BDE8F88F22
:1021900028688001F4D40EE00128F7D06868226A2C
:1021A00000F48031914204D1616A00F470108842D9
:1021B00001D00120EAE70020E8E70000001002401B
:1021C000000042428004424274030020007000403C
:1021D0007047704770B590F83C20012A26D0012442
:1021E00080F83C40022280F83D2003685A689D68D0
:1021F00022F070060A6832435A600D4B02689A4218
:1022000008D0B2F1804F05D00A4B9A4202D00A4B57
:102210009A4204D1496825F080031943916080F8FF
:102220003D40002180F83C10084670BD022070BD82
:10223000002C0140000400400008004010B50400DC
:1022400003D094F83D0010B107E0012010BD00203C
:1022500084F83C00204600F01FF8022084F83D007E
:10226000211D206800F0A2FF012084F8460084F8B8
:102270003E0084F83F0084F8400084F8410084F870
:10228000420084F8430084F8440084F8450084F850
:102290003D00002010BD000008B501680B48B1F1F9
:1022A000804F0BD00A4A914207D1C16941F0040125
:1022B000C161C06900F00400009008BDC16941F02F
:1022C0000101C161C06900F00100F5E700100240A2
:1022D0000008004090F83D10012901D0012070470E
:1022E000022180F83D1000680B49884208D0B0F107
:1022F000804F05D00949884202D00949884204D15B
:10230000816801F00701062903D0016841F001014D
:102310000160002070470000002C014000040040D4
:102320000008004090F83D10012901D001207047BD
:10233000022180F83D100168CA6842F00102CA60BB
:1023400000680B49884208D0B0F1804F05D0094998
:10235000884202D00849884204D1816801F007010F
:10236000062903D0016841F0010101600020704797
:10237000002C0140000400400008004070B50446F5
:1023800090F83C00012817D0012584F83C50022029
:1023900084F83D002068826822F0770222F47F42B0
:1023A00082600868502830D00DDC20284DD005DC34
:1023B00098B310283BD148E0022070BD302844D0AB
:1023C000402834D139E0602828D0702806D0B0F5F4
:1023D000805F2CD0B0F5005F29D10AE0CB68D1E94D
:1023E0000121206800F025FF2068816841F0770115
:1023F00009E0CB68D1E90121206800F01AFF2068CC
:10240000816841F48041816011E0CA6849682068B0
:1024100000F0C4FF5021206807E016E0CA68496850
:10242000206800F0CCFF6021206800F00CFF84F8E9
:102430003D50002084F83C0070BDCA68496820689F
:1024400000F0ACFF40212068EFE72268014610460B
:10245000EBE7704770B50446006801694FF000056E
:10246000C943890715D4C168C943890711D4E91E36
:10247000016101202077206880698007204602D012
:10248000FFF7E7FF04E000F0BDF8204600F04CF94C
:10249000257720680169C943490717D4C168C94332
:1024A000490713D46FF004010161022020772068EE
:1024B000806910F4407F204602D0FFF7CAFF04E095
:1024C00000F0A0F8204600F02FF925772068016978
:1024D000C943090716D4C168C943090712D46FF06C
:1024E00008010161042020772068C0698007204628
:1024F00002D0FFF7AEFF04E000F084F8204600F0C1
:1025000013F9257720680169C943C90617D4C16842
:10251000C943C90613D46FF0100101610820207768
:102520002068C06910F4407F204602D0FFF791FF79
:1025300004E000F067F8204600F0F6F82577206800
:102540000169C943C90708D1C168C943C90704D192
:10255000891E0161204600F037F920680169C943EE
:10256000090609D4C168C943090605D46FF0800182
:1025700001612046FFF72CFE20680169C943490626
:1025800009D4C168C943490605D46FF0400101610F
:10259000204600F023F920680169C94389060BD45D
:1025A000C168C943890607D46FF020010161204644
:1025B000BDE87040FFF70DBE70BD000000B585B0EE
:1025C000002100910191029103910068B0F1804FC8
:1025D00011D10A48816941F004018161806969462D
:1025E00000F004000490012000900220019003906C
:1025F0000348FFF799F905B000BD00000010024044
:1026000000080140704770B5044690F83C000D4644
:1026100001280AD0012084F83C0042B1042A18D0D5
:10262000082A2AD00C2A4DD139E0022070BD20683A
:1026300000F012FE2068816941F008018161206884
:10264000816921F004018161206881692A6911434F
:1026500011E0206800F028FE2068816941F40061E3
:1026600081612068816921F48061816120688169CC
:102670002A6941EA0221816124E0206800F040FEDD
:102680002068C16941F00801C1612068C16921F079
:102690000401C1612068C1692A69114311E0206801
:1026A00000F05AFE2068C16941F40061C1612068F0
:1026B000C16921F48061C1612068C1692A6941EA68
:1026C0000221C161002084F83C0070BD10B50400F7
:1026D00003D094F83D0010B107E0012010BD0020A8
:1026E00084F83C00204600F01EF8022084F83D00EB
:1026F000211D206800F05AFD012084F8460084F86E
:102700003E0084F83F0084F8400084F8410084F8DB
:10271000420084F8430084F8440084F8450084F8BB
:102720003D00002010BD70477047000010B5044602
:10273000022249B104290ED0082913D094F841008F
:10274000012816D0012010BD94F83E000128F9D1CF
:1027500084F83E200FE094F83F000128F2D184F87D
:102760003F2008E094F840000128EBD184F8402095
:1027700001E084F841200122206800F04DFD0F495E
:102780002068884203D1426C42F4004242642068CF
:10279000884208D0B0F1804F05D00949884202D064
:1027A0000849884204D1816801F00701062903D055
:1027B000016841F001010160002010BD002C0140C2
:1027C000000400400008004000680349884201D12D
:1027D000FFF7AAB970470000002C0140704770470E
:1027E000704770B5040004D094F83D00002510B186
:1027F00006E0012070BD84F83C50204600F022F82D
:10280000242084F83D002068C16821F40051C16093
:10281000204600F067FE2068016921F490410161C3
:102820002068416921F02A0141612068C16841F4B2
:102830000051C1602564202084F83D0084F83E00EA
:10284000002070BD70B586B0002506460095019544
:102850000295039500681E49884236D11D49C86912
:1028600040F40030C861C86900F400300490886901
:1028700040F0040088618869174C00F0040004905F
:102880000420009002200190032003906946204616
:10289000FFF74AF80820CDE9000569462046029571
:1028A000FFF742F80E4C0D48C4E900058020C4E94A
:1028B000025025616561A5612046E561FEF7CEFF06
:1028C00008B1FEF71FFFB463666206B070BD00007A
:1028D0000044004000100240000801406C0002402B
:1028E000C804002090F83E30202B0ED159B152B1CF
:1028F00090F83C30012B08D0012380F83C300023B5
:10290000036300F04BBE01207047022070470000B7
:10291000F0B4264900680968884245D12449012459
:1029200001F13002C8782A2816D00025232815D0B6
:10293000612815D0412813D0622813D0422811D025
:102940000E46A0F13007CB1DF668092F0DD88D700B
:102950009855761CCE6014E0147004E0157002E007
:10296000547000E055700C610BE0002E01DD25284D
:102970000ED0CD600D704D708D701D705D709D70AE
:102980000D61F0BC0A490122C91C0848FFF7AABF23
:10299000CD60187890705878D070987810710C616C
:1029A0001D705D709D70ECE7F0BC704774040020F2
:1029B00030030020704700002DE9F843044690F8EA
:1029C0003D001F4616460D4620284CD1C5B1BEB16C
:1029D00094F83C00012846D0012084F83C004FF0D8
:1029E0000008C4F84080212084F83D00FFF796F8E5
:1029F000A6848146E684A068B0F5805F03D004E039
:102A00000120BDE8F883206928B12E465FF000055B
:102A100084F83C800EE00026FAE78021204600F092
:102A2000F5FDA0B9AEB116F8010B21684860E08C45
:102A3000401EE084E08C4B464FF0000200970028D7
:102A4000EBD14FF04001204600F0E0FD30B1032013
:102A5000D7E735F8020BC0F30800E6E7202084F83A
:102A60003D000020CDE70220CBE7FEE7044B20B17C
:102A7000012201211846FFF74CB80022F9E70000B7
:102A8000000C0140044B20B1012280211846FFF7C1
:102A900040B80022F9E7000000080140044B20B1D3
:102AA000012240211846FFF734B80022F9E7000060
:102AB0000008014070B505460C460020FFF7D6FF20
:102AC000CCB10120FFF7DEFF5FF0000405F08000CD
:102AD000FFF7E4FF6806050E002000F027F801204C
:102AE00000F024F8641CE4B2082CEFD3BDE8704079
:102AF0000120FFF7BBBF0020E4E70000044B4FF4C8
:102B0000806118B101221846FFF703B80022FAE7E6
:102B100000080140044B20B1012202211846FEF7B3
:102B2000F8BF0022F9E70000000C0140044B20B17F
:102B3000012220211846FEF7ECBF0022F9E7000031
:102B40000008014070B50024002501210020FFF796
:102B5000B1FF6D1CEDB2542DF7D3641CE4B2062C0A
:102B6000F2D370BD70B505460C460020FFF7C6FFD6
:102B70000020FFF7CFFF0120FFF784FF0120FFF7C0
:102B80008DFF0120FFF7D2FF0120FFF76FFF0A2121
:102B900020462C6000F0D4FD0120FFF7BBFF002190
:102BA0002120FFF787FF0021B720FFF783FF0021D7
:102BB0001420FFF77FFF00210620FFF77BFF002195
:102BC0002020FFF777FFFFF7BDFFBDE87040002131
:102BD0000C20FFF76FBF10B501EB410149060C0E49
:102BE00040F040000021FFF765FF44F08000BDE8A1
:102BF00010400021FFF75EBF70B52038C0B2074912
:102C000000EB4000002401EB40050121285DFFF7A7
:102C100051FF641CE4B2062CF7D370BD0000002005
:102C200070B52038C0B2084900EB4000002401EB29
:102C300040050121285DC043C0B2FFF73BFF641C83
:102C4000E4B2062CF5D370BD0000002070B50D462F
:102C5000044603E035B1FFF7E3FF641C2078002849
:102C6000F8D170BDFFF7C8FFF7E7000038B5FFF7F0
:102C700069FF00210320FFF7AEFF00214AA0FFF704
:102C8000E5FF4C4C0021A0788DF80000E0788DF82D
:102C9000010020798DF802000220FFF79CFF00213F
:102CA00045A0FFF7D3FF20784FF0070101284FF030
:102CB00002003BD0FFF78FFF002141A0FFF7C6FFC6
:102CC00000210846FFF787FF00213E48FFF7BEFFBF
:102CD00000210120FFF77FFF00213BA0FFF7B6FF97
:102CE00060783B4C01284FF007014FF0010022D0E3
:102CF000FFF771FF002137A0FFF7A8FF6846FDF737
:102D0000D1FB64284FF007014FF0030037DDFFF7D8
:102D100062FF002131A0FFF799FF0A210320FFF78E
:102D20005AFF2520FFF768FF20463AE0FFF753FFE0
:102D300000212BA0C2E7FFF74EFF002129A0FFF7DB
:102D400085FF07210320FFF746FF1A4800212B3893
:102D5000FFF77CFF0A210320FFF73DFF2520FFF747
:102D60004BFF144821493038C06A02F0CBFC2146A1
:102D700002F0FCFB6FF0010102F06DFD11E0FFF7C6
:102D80002AFF00216846FFF761FF0A210320FFF7B1
:102D900022FF2520FFF730FF6846FDF783FB02F096
:102DA000B9FB00F01BFE38BD44757479203D20202E
:102DB0003020250060030020456E61626C653A009A
:102DC0004E6F2000D8030020536F757263653A0080
:102DD0000000C8425561727420200000313030007C
:102DE0005965730053656E736F7200000000E04117
:102DF0002DE9F04186B00024294800940194029402
:102E00000394816941F020018161816901F0200111
:102E10000491816941F004018161816901F004013B
:102E20000491816941F0080181618069DFF8748053
:102E300000F008000490002241F6F0714046FEF7D1
:102E400068FE194F002203213846FEF762FE41F268
:102E5000F00001250226CDE90005CDE902466946CC
:102E60004046FEF761FD0320CDE90005CDE90246AD
:102E700069463846FEF758FD4FF470408DE8310042
:102E800069463846FEF750FD4FF470608DE86100EA
:102E9000694640460396FEF747FD06B0BDE8F0815F
:102EA0000010024000080140000C014010B58EB037
:102EB00000240794089409940A940B941C216846F2
:102EC0000C94FDF773FB1E484FF0804101604FF4F6
:102ED0006151C0E901146321C0E903148461FFF763
:102EE000ADF908B172B6FEE74FF48050079007A91C
:102EF0001348FFF743FA08B172B6FEE71048FFF730
:102F0000E5FB08B172B6FEE70B940BA90C480C94D4
:102F1000FFF760F908B172B6FEE76020CDE9000462
:102F200002940022694606480494FFF76CFB08B13E
:102F300072B6FEE70248FFF741FB0EB010BD00007D
:102F4000E403002010B586B00024174800940194D3
:102F50000294039404941349059401604721C0E945
:102F600001144FF6FF71C0E903148461FFF766F99D
:102F700008B172B6FEE74FF48050009069460A48E7
:102F8000FFF7FCF908B172B6FEE7049404A90648FD
:102F90000594FFF71FF9002801D072B6FEE706B0CE
:102FA00010BD0000000800402C040020FEE7FEE7F2
:102FB0001FB5002100910191029103918188009138
:102FC00080686946FEF7B0FC1FBD1FB50021009167
:102FD00001910291039181880091012101910221C7
:102FE000039180686946FEF79FFC1FBD1F4C4FF49C
:102FF000967540F6B8361E4801F0D2F910F0FF4F32
:10300000E0622ED002F0B6F9024619480B4619A12B
:10301000E038FDF75BF91B49E06A02F073FB1A49DF
:1030200002F0A4FA6FF0010102F015FC02F036FA8A
:1030300002460E4815A1401DFDF748F90C490C2227
:103040002B46E0390A484438FFF7B6FC08482B46BF
:1030500001220FA14438FFF7AFFC304600F0D0FC4E
:10306000C9E72B460F220BA1ECE70000300300203C
:10307000B804002054203D2025302E326620B04375
:10308000000000000000E0410000C842256400008C
:103090000A00000053656E736F72206572726F7262
:1030A00021212100044C00BF01F01EF820710128ED
:1030B000FAD000F009FBF7E730030020084C4FF48A
:1030C0007A754FF496762946606A00F0EDFCFFF7BA
:1030D000CDFD606A00F0C0FC304600F091FCF2E7E4
:1030E000300300200A4C00254FF47A76206901282D
:1030F00009D13146606A00F0D7FCFFF7B7FD606A7E
:1031000000F0AAFC2561022000F07AFCEEE7000046
:103110003003002010B5502080F31188BFF34F8F8B
:10312000BFF36F8F01F05EFF18B104494FF080507C
:103130000860002080F3118810BD000004ED00E05D
:1031400030B58FB028216846FDF730FA14210AA85F
:10315000FDF72CFA01210804CDE9001000240294A7
:1031600002250491CDE907504FF4E010099068461C
:10317000FEF79EFE08B172B6FEE70F20CDE90A0504
:103180004FF48060CDE90C4002210AA80E94FEF7AE
:1031900083FD002801D072B6FEE70FB030BD704746
:1031A0000148FFF757B9000060070020F0B502683A
:1031B000164B174C174D4FF08047984205D0B84238
:1031C00003D0A04201D0A84203D122F070064A6881
:1031D0003243984205D0B84203D0A04201D0A84261
:1031E00003D122F44074CA6822434C6922F0800261
:1031F000224302608A68C2620A688262984201D1F0
:103200000969016301214161F0BD0000002C01400A
:10321000000400400008004010B501F01F03012128
:10322000046A99408C430462016A9A401143016226
:1032300010BD10B5846842EA032224F47F440A4397
:103240002243826010BD826822F070020A4342F07D
:10325000070181607047000030B5026A22F0010268
:103260000262026A4368846924F073050C682C4387
:1032700022F002058A682A430A4DA8420BD122F0A7
:103280000805CA6823F440732A434D6922F00402FA
:103290001D438B692B43436084614968416302622B
:1032A00030BD0000002C014030B5026A22F010024F
:1032B0000262026A436884690D6824F4E64444EAC1
:1032C00005248D6822F0200242EA05120B4DA84227
:1032D0000ED1CD6822F0800242EA05124D6923F436
:1032E000406343EA85038D6922F0400243EA850387
:1032F0004360846149688163026230BD002C0140F3
:1033000030B5026A22F480720262036A4268C469BC
:1033100023F4007324F073050C682C438D6843EA92
:1033200005230C4DA8420ED1CD6823F4006343EA77
:1033300005234D6922F4405242EA05128D6923F4B7
:10334000806342EA05124260C4614968C163036256
:1033500030BD0000002C014030B5026A22F48052DA
:103360000262046A4268C3690D6823F4E64343EAD3
:1033700005238D6824F4005444EA0534064DA84220
:1033800004D14D6922F4804242EA85124260C36151
:1033900049680164046230BD002C014010B5036A25
:1033A000046A24F001040462846924F0F00444EA0D
:1033B000021423F00A020A438461026210BD10B5B0
:1033C000036A23F0100303628369046A23F47043E1
:1033D00043EA023224F0A00343EA01118261016250
:1033E00010BD70B5446A2068406994F83D10C0F380
:1033F000C0100025212904D118B1E584204600F031
:1034000067F82068406994F83E10C0F380102229C4
:1034100004D118B1E585204600F042F8206C40F058
:10342000100020642046FFF7DBF970BD10B501469F
:10343000406A0968096889061BD40021C1850168B2
:10344000CA6822F48072CA6001684A6922F00102E7
:103450004A6101684A6922F040024A61202180F8ED
:103460003E10016B012904D10168CA6822F01002E4
:10347000CA60016B012902D0FFF74AFA10BD818DA5
:10348000FFF7ADF910BD10B5406A016B012902D0FC
:10349000FFF790FA10BD818D4908FFF7A0F910BD24
:1034A0000168CA6822F49072CA6001684A6922F011
:1034B00001024A61016B012904D10168CA6822F046
:1034C0001002CA60202180F83E100021016370477D
:1034D0000168CA6822F0C002CA60202180F83D104D
:1034E0007047000070B5044600680169E26821F485
:1034F0004051114301612169A06808436169084393
:103500002168CA6841F20C639A430243CA6020688A
:103510004169A26921F44071114341611E4920684B
:10352000884202D1FEF77EFC01E0FEF76BFC00EB67
:10353000C00101EB0012606864218000B2FBF0F36F
:10354000B3FBF1F36FF018067343B2FBF0F5B2FB77
:10355000F0F605EB8305322303EB0515B5FBF1F51A
:10356000B6FBF1F605F0F00505EB0615B2FBF0F63B
:10357000B2FBF0F0B0FBF1F06FF01802504306EB35
:10358000800003EB0010B0FBF1F0216800F00F00A9
:103590002844886070BD00000038014038B5816261
:1035A00082850025134604460564222084F83E00E7
:1035B000A26B13489062A26B1248D062A26B1248B1
:1035C0001063A06B0A4645632168A06B091DFEF7D6
:1035D00073F9206801684168009184F83C50C16823
:1035E00041F48071C1602068416941F0010141618D
:1035F0002068416941F040014161002038BD000070
:103600002D34000887340008E33300082DE9F04129
:10361000984617460E460446069D1DE0681C1BD0C2
:103620002DB1FEF77BFAA0EB0800A84214D9206860
:10363000C16821F4D071C1602068416921F00101A5
:103640004161202084F83D0084F83E00002084F889
:103650003C000320BDE8F0812068006836EA0000E5
:1036600004D00020B842D9D00020F3E70120F9E7C8
:10367000FEE7490050EAC12018BF04204A0D18BFD8
:1036800040F0010040F2FF72B2EB515F08BF40F022
:103690000200012808BF052070470907090E00280D
:1036A00004DB00F1E02080F80014704700F00F0008
:1036B00000F1E02080F8141D704730380A2801D24C
:1036C00001207047002070472DE9F0411A4C012677
:1036D0004FF4FA71626A04F13005412812D00027D4
:1036E000422817D02A281DD0232823D1104600F0C5
:1036F000DBF9002000F08CFE2F70606ABDE8F0411D
:1037000000F0AAB9104600F0CFF9012000F0AAFE9F
:103710006E70F2E7104600F0C7F9002000F0A2FE3C
:103720006F70EAE7104600F0BFF9012000F070FE6C
:103730002E70E2E7BDE8F08130030020FEF7CABD3D
:1037400010B5036800225A624FF47A7303E00268EE
:10375000546A9C42FCD3491E89B2F8D210BD03685A
:1037600000225A620068426A8A42FCD370470068AD
:10377000FFF7F5BF30B482608380016030BC08463B
:10378000FFF7DCBF2DE9F04104460825002024E0C6
:1037900047082046FFF719FCA1880022A068FEF721
:1037A000B8F906212046FFF7E2FFA1880122A068B0
:1037B000FEF7AFF92046FFF7FBFB09212046FFF794
:1037C000D6FFA188A068FEF79FF90646372120465C
:1037D000FFF7CDFF47EAC610C0B26D1EEDB2D7D2DB
:1037E000BDE8F08170B50446FFF7EFFBA188002229
:1037F000A068FEF78EF94FF4F0712046FFF7B7FF8F
:10380000A1880122A068FEF784F92046FFF7D0FBCB
:1038100046212046FFF7ABFFA188A068FEF774F9A8
:1038200005464FF4CD712046FFF7A1FF284670BD35
:1038300010B50446012915D0FFF7C7FBA188002267
:10384000A068FEF766F93C212046FFF790FFA188AB
:103850000122A068FEF75DF90A212046BDE810406C
:10386000FFF785BFFFF7B1FBA1880022A068FEF734
:1038700050F906212046FFF77AFFA1880122A068AF
:10388000FEF747F94021E8E770B50C4606460825E3
:1038900006E000BF04F001013046FFF7C9FF6408ED
:1038A0006D1EEDB2F6D270BDEFF30580002800D09A
:1038B00001207047A0B0FEF73FF9FFF741FCFFF78A
:1038C00097FA3E483C49002401604FF41651C0E984
:1038D00001140C21C460C0E904418461C461FEF795
:1038E00080FF08B172B6FEE73548416941F0010139
:1038F00041614069002200F001001E900521102066
:10390000FEF798F91020FEF787F9FFF7CFFAFFF7D7
:1039100019FB2A494FF4805348392A4A01F18C0097
:10392000FFF728FF254928484839FFF71BF9FFF71B
:1039300009F9224800219038FEF7F8FE22490122B9
:1039400025391E48FEF7CEFF1C9401211CA81D94AA
:1039500000F062F81C4C1C22283C1C49606268463E
:10396000FCF7F2FD0021684600F0D0F817496061CD
:103970001C221C3107A8FCF7E7FD002107A800F076
:10398000C5F81249A0611C2238310EA8FCF7DCFDF5
:1039900000210EA800F0BAF80C49E0611C22543155
:1039A00015A8FCF7D1FD002115A800F0AFF82062A2
:1039B00000F02DF8FEE700000044004074040020F1
:1039C000001002400008014058030020D4580008AD
:1039D00001460020842900D0C81C7047064910B554
:1039E0000A780649012A0C6802D00020606310BDE5
:1039F00001F070FDFAE7000060030020E4030020FE
:103A000010B500B9012000F049FE002010BD10B52E
:103A100000F0E4FE002010BD38B543684BB1012929
:103A200009D10320002200901146012000F0BAFFC6
:103A300038BD012901D0002038BD0322002101201A
:103A400000F08CFF040004D000231A46194601F050
:103A500021F8204638BD000038B500240546009402
:103A6000FFF722FF90B16946284601F0C3F801280C
:103A700001D0FF2038BD009888B10A494FF080502E
:103A80000860BFF34F8FBFF36F8F08E000231A4623
:103A90001946284600F0FEFF012800D0FF242046EA
:103AA00038BD000004ED00E038B505004FF000001F
:103AB00000900FD00024481C0ED001B10C46FFF737
:103AC000F3FEB8B16A460021284601F0E1F801286A
:103AD00016D104E0802038BD4FF0FF34EFE70098A6
:103AE00080B109494FF080500860BFF34F8FBFF39A
:103AF0006F8F07E02146284601F018F9012801D010
:103B0000FF2038BD002038BD04ED00E07FB50D4634
:103B100004464169B0F9080081B1A16971B1FFF7AC
:103B200057FFD4E905128DE80700D4E900102B46B1
:103B3000226901F01EFA039004B070BDFFF748FF40
:103B400003A9CDE90001208A2B4682B2D4E90010F6
:103B500001F0E2F9012801D00020EDE70398EBE73E
:103B60002DE9F041184C0F46054666692068001D96
:103B700000F0A6FC38B9206890F82C10012088408D
:103B8000A1698143A161681C07D137B12168BDE8F3
:103B9000F0410E48091D00F0D7BC20683544B542FD
:103BA0004560216805D2A068BDE8F041091D00F01C
:103BB000B3BC6068091D00F0AFFC206B854200D2E9
:103BC0002563BDE8F0810000780300208408002010
:103BD0002DE9F041054600F0C3FC2E4C2069401C45
:103BE000206120682C4F10B1E06940B32DE02560C2
:103BF0002069012829D1002606EB860007EB80000A
:103C000000F07CFC761C072EF6D323488C3000F0A5
:103C100075FC2148A03000F071FC1F48B43000F062
:103C20006DFC1D48C83000F069FC1B48DC3000F01A
:103C300065FC19488C3060601430A06005E0206895
:103C4000E96AC06A884200D82560E06A401CE062E8
:103C5000E96A0120A26988401043A06101EB81005C
:103C600007EB8000291D00F06FFC00F099FCE06973
:103C700000280CD02068E96AC06A884207D2074948
:103C80004FF080500860BFF34F8FBFF36F8FBDE8D8
:103C9000F081000078030020A807002004ED00E078
:103CA00030B4026C0B46002A0BD0C1681144C160CD
:103CB0004468A14201D30168C16030BC1846FCF7DA
:103CC000FEBB30BC70472DE9F041856B17460446BA
:103CD0000026026C82B1C7B1E068FCF7F0FBE16836
:103CE000206C091AE1602268914202D26168081AC8
:103CF000E060022F16D017E02068A8B9606801F0D4
:103D0000D5F90646002060600EE0A068FCF7D7FBFE
:103D1000216CA0680844A0606168884204D32068D0
:103D2000A06001E005B16D1E6D1CA5633046BDE8C5
:103D3000F08110B5044690F8510058B101280CD01C
:103D400002280FD0502080F31188BFF34F8FBFF3AC
:103D50006F8FFEE7206B00F037FC2046BDE8104077
:103D600000F032BC10BD000010484FF44061420723
:103D700006D0C01D0D4920F00700411AC1F5406171
:103D80000B4A00230144C2E900030839103A21F02C
:103D9000070111604B600B600B1AC0E900139360C0
:103DA0004FF000405360D06070470000980800203A
:103DB000C4030020144E154CA6F1C8074FF08058DC
:103DC000DFF84C9012E000BF00F0CAFBF068C56855
:103DD000281D00F075FB2069401E2061E068401E30
:103DE000E06000F0DDFB2846FFF7A3FFE068002855
:103DF000EAD138680128F9D9C9F80080BFF34F8F9C
:103E0000BFF36F8FF2E700007008002078030020F6
:103E100004ED00E00346009829B10260C0E90F31CB
:103E2000012100F0F3BD0060F8E72DE9F0479A4664
:103E3000DDE9098481466FF00303206B03EB820206
:103E40001044089D20F00706700707D0502080F32B
:103E50001188BFF34F8FBFF36F8FFEE723180A5C03
:103E600083F834200A5C12B1401C1028F6D30027D6
:103E700084F84370072D00D30625E562C4E9115785
:103E8000201D00F046FB04F1180000F042FB246105
:103E9000C5F107006462A061E76484F8507052467F
:103EA0004946304600F00EF92060B8F1000F01D00D
:103EB000C8F80040BDE8F08730B5114900E0114670
:103EC0000A688242FBD34B685C18844203D1406885
:103ED00018444860084643681C18944209D1084CAD
:103EE000103C2468A24209D052681A4442600A6811
:103EF00012680260814200D0086030BD0460F9E7BA
:103F0000C403002010B5044600F02AFBA06B28B1C2
:103F10005FF0000400F044FB204610BD0124F9E7E7
:103F200006484168096829B14168C968C968496893
:103F3000016370474FF0FF31FAE70000780300207B
:103F400008484068401C4FF0500080F3118804D0AE
:103F5000BFF34F8FBFF36F8FFEE7BFF34F8FBFF3FA
:103F60006F8FFEE7CC0300202DE9F041044600F0FE
:103F7000F7FA94F9455004F1240609E0606A48B163
:103F8000304601F029F908B100F0B6FB6D1E6DB2A4
:103F9000002DF3DC4FF0FF3684F8456000F000FBA5
:103FA00000F0DEFA94F9445004F1100709E02069AA
:103FB00048B1384601F010F908B100F09DFB6D1EC4
:103FC0006DB2002DF3DC84F84460BDE8F04100F0F0
:103FD000E7BA00002DE9F0410546002700F034FC67
:103FE000314E306808B9FFF7BFFEF06805424BD18B
:103FF000C5B3083568070ED005F00700C0F108000A
:104000000544680707D0502080F31188BFF34F8F15
:10401000BFF36F8FFEE72DB37068854234D8224816
:10402000103001460C6801E020460C466168A94248
:1040300002D221680029F7D131688C4224D0076868
:104040002168016060680837411B10290FD9601989
:10405000420708D0502080F31188BFF34F8FBFF381
:104060006F8FFEE710E041606560FFF725FF616834
:104070007068401A7060B268904200D2B060F06818
:1040800001430020C4E9000101F0E0F8780707D0FF
:10409000502080F31188BFF34F8FBFF36F8FFEE77F
:1040A0003846BDE8F0810000B403002004490868E8
:1040B00018B10868826C521C82640868704700005E
:1040C0007803002010B5031F4FF080741C601B1F85
:1040D00021F001011960191F024B0B60143940389F
:1040E0000A6010BD413F00082DE9F05FAA4E4FF471
:1040F0008078002241463046FDF70BFD0122510237
:104100003046FDF706FD012291023046FDF701FD24
:104110000122D1023046FDF7FCFCA04C4FF40047D1
:1041200039462046FDF7F0FC00287DD07D10294659
:104130002046FDF7E9FC002877D04FF400594946A6
:104140002046FDF7E1FC002870D04FF4805A51461C
:104150002046FDF7D9FC002869D0012241463046AF
:10416000FDF7D7FC002261153046FDF7D2FC012295
:1041700091023046FDF7CDFC0122D1023046FDF719
:10418000C8FC39462046FDF7BFFC00287BD02946F5
:104190002046FDF7B9FC002876D049462046FDF7B9
:1041A000B3FC002871D051462046FDF7ADFC002835
:1041B0006CD00122B34611025846FDF7AAFC012239
:1041C00051023046FDF7A5FC002221153046FDF7CF
:1041D000A0FC0122D1023046FDF79BFCB8463946CF
:1041E0002046FDF791FC002873D029462046FDF7B4
:1041F0008BFC00286ED04E4649462046FDF784FCD5
:10420000002868D0574651462046FDF77DFC00281F
:1042100072D0012211025846FDF77BFC01225102A7
:104220005846FDF776FC03E031E038E03FE047E038
:10423000012291025846FDF76CFC0022E114584619
:10424000FDF767FC41462046FDF75EFC00286FD075
:1042500029462046FDF758FC00286AD03146204602
:10426000FDF752FC002875D039462046FDF74CFC7E
:10427000002806D139462046FDF746FC0028F9D033
:104280004420BDE8F09F27E02EE036E03EE03946CE
:104290002046FDF739FC0028F9D03120F1E7294606
:1042A0002046FDF731FC0028F9D03220E9E74D46E1
:1042B00029462046FDF728FC0028F9D03320E0E706
:1042C000554629462046FDF71FFC0028F9D041201D
:1042D000D7E724E02EE035E039462046FDF714FC10
:1042E0000028F9D03420CCE729462046FDF70CFC05
:1042F0000028F9D03520C4E72DE04D462946204658
:10430000FDF702FC0028F9D03620BAE755462946C9
:104310002046FDF7F9FB0028F9D04220B1E74546D9
:1043200029462046FDF7F0FB0028F9D03720A8E702
:1043300019E021E029462046FDF7E6FB0028F9D0E8
:1043400038209EE731462046FDF7DEFB0028F9D0F5
:10435000392096E718E039462046FDF7D5FB0028BE
:10436000F9D043208DE7454629462046FDF7CCFB92
:104370000028F9D02A2084E729462046FDF7C4FB0F
:104380000028F9D030207CE731462046FDF7BCFB01
:104390000028F9D0232074E700080140000C0140F8
:1043A00070B5054640F2E7342846FFF71BFA18B10E
:1043B000641EF9D2012829D0CC212846FFF764FADF
:1043C00044212846FFF760FA5E212868FFF7B8F914
:1043D0002846FFF707FA0028FAD1CC212846FFF734
:1043E00053FABE212846FFF74FFA2846FFF7CAF9CD
:1043F00004462846FFF7C6F904EB002001F0A2F8B6
:10440000BDE870406FF0030101F025BA002070BDD7
:1044100010B50F4C002120700220FEF7DCFB0021BC
:104420000CA0FEF713FC20784FF0070101284FF095
:10443000020007D0FEF7CFFB002108A0BDE8104026
:10444000FEF704BCFEF7C7FB002105A0F6E700005D
:1044500060030020456E61626C653A004E6F20007B
:104460005965730010B50F4C002160700120FEF7F4
:10447000B2FB00210CA0FEF7E9FB60784FF00701CA
:1044800001284FF0010007D0FEF7A5FB002108A08E
:10449000BDE81040FEF7DABBFEF79DFB002106A049
:1044A000F6E7000060030020536F757263653A0001
:1044B000556172742020000053656E736F720000A6
:1044C000D0E9013201699A60D0E901235A604A6853
:1044D000824201D182684A60002202610868401E5F
:1044E0000860086870470000034B036003F1540044
:1044F00008608020106070470C05002000F1080162
:104500004FF0FF32C0E90112C1600161002101607A
:10451000704700210161704730B50B685A1C02D00A
:1045200000F1080202E0026904E0224654682568AE
:104530009D42FAD953684B6099608A605160086166
:104540000168491C016030BD42684A6093688B6015
:1045500093685960916008610168491C0160704767
:10456000502080F31188BFF34F8FBFF36F8F0A493C
:104570004868401C486001280CD10848006810F0C9
:10458000FF0F07D0502080F31188BFF34F8FBFF388
:104590006F8FFEE770470000CC03002004ED00E0C1
:1045A0000849486828B1401E486001D180F311884D
:1045B0007047502080F31188BFF34F8FBFF36F8F88
:1045C000FEE70000CC03002070B5002827D0144D72
:1045D000A0F108046168E868014207D1502080F327
:1045E0001188BFF34F8FBFF36F8FFEE722683AB198
:1045F000502080F31188BFF34F8FBFF36F8FFEE71A
:104600008143616000F020F960686968084468606F
:104610002046FFF751FCBDE8704000F017BE70BDAA
:10462000B40300204FF0E0200021016181610549C1
:104630004FF47A720968B1FBF2F1491E416107211A
:10464000016170477403002010B5FBF71BFE114990
:1046500010280ED300F1E02090F8F0030A78904281
:1046600007D2502080F31188BFF34F8FBFF36F8FB5
:10467000FEE709480068896800F4E060884207D9CD
:10468000502080F31188BFF34F8FBFF36F8FFEE789
:1046900010BD0000CC0300200CED00E010B50200BE
:1046A00014D00F48806B38B1502080F31188BFF3CD
:1046B0004F8FBFF36F8FFEE700F0C6F80021104662
:1046C000FFF74EFA00F0C2FD002807D105494FF070
:1046D00080500860BFF34F8FBFF36F8F10BD000095
:1046E0007803002004ED00E002498A6A026049690B
:1046F00041607047780300200149012048627047FB
:104700007803002010B50C4650B1094909681831EA
:10471000FFF702FF2046BDE810400121FFF720BA55
:10472000502080F31188BFF34F8FBFF36F8FFEE7E8
:104730007803002070B504004BD0A26CA2B1606C6D
:10474000884200D30146E06A884242D0012A40D123
:10475000204D2A6894420FD1502080F31188BFF376
:104760004F8FBFF36F8FFEE7502080F31188BFF3A8
:104770004F8FBFF36F8FFEE7E162A269002A02DB71
:10478000C1F10701A161144E00EB8000616906EBE5
:10479000800081421DD1201DFFF792FE012150B9FA
:1047A000E06A00EB800256F8222022B9AA6901FAD9
:1047B00000F08243AA61E06AAA6981401143A961BD
:1047C00000EB800006EB8000211DBDE87040FFF784
:1047D000BBBE70BD78030020A807002010B586B0CE
:1047E0000024039405AA04A903A80494FFF77CFEFF
:1047F000DDE903010094CDE9011000230EA110486A
:10480000059A00F0B6FB0F490028486311D05020EC
:1048100080F31188BFF34F8FBFF36F8F4FF0FF30DE
:1048200008630120C8614C6106B0BDE8104000F08B
:1048300041B806B010BD000049444C4500000000DE
:10484000B53D0008780300200248816B491C816354
:1048500070470000780300201448816B11B10121DA
:1048600041627047002141628169B1FA81F1C1F171
:104870001F0101EB81020E4951F822306BB101EBAF
:10488000820101F108034A6852684A609A4201D1E4
:1048900052684A60D16801607047502080F31188E7
:1048A000BFF34F8FBFF36F8FFEE700007803002048
:1048B000A80700201CB5264908780190FF20087041
:1048C00008788DF800009DF800009DF8002000F0A9
:1048D000F000904207D0502080F31188BFF34F8F33
:1048E000BFF36F8FFEE79DF800001A4B00F05000F9
:1048F00018700720986005E09DF8002052008DF8A0
:104900000020401E9DF800201206F5D49860032870
:1049100007D0502080F31188BFF34F8FBFF36F8F04
:10492000FEE74FF440709860019808700A480168EB
:1049300041F470010160016841F070410160FFF7CE
:1049400071FE00205860FBF767FC00201CBD0000D2
:1049500000E400E0CC03002020ED00E0F8B51746AD
:104960000E46050014D0DEB105FB06F04830FFF717
:1049700031FB04000AD0002084F8460004F148020C
:104980003B46314628460094FFF744FA2046F8BDDE
:10499000502080F31188BFF34F8FBFF36F8FFEE776
:1049A0000020E3E738B5049D18B153B1CAB181B115
:1049B00020E0502080F31188BFF34F8FBFF36F8F3B
:1049C000FEE7502080F31188BFF34F8FBFF36F8F46
:1049D000FEE7502080F31188BFF34F8FBFF36F8F36
:1049E000FEE739B1502080F31188BFF34F8FBFF33A
:1049F0006F8FFEE748241C46012384F846302B467F
:104A00000094FFF707FA204638BD000070B50D4648
:104A1000040025D0FFF7A4FDD4E90F20216802FB94
:104A2000001161600021A1632168A1600A46D4E9F8
:104A30000F01401E00FB0121E16021464FF0FF30D5
:104A400001F8440F487004F110008DB1FFF756FDD6
:104A500004F12400FFF752FDFFF7A2FD012070BD15
:104A6000502080F31188BFF34F8FBFF36F8FFEE7A5
:104A700021690029F0D000F0AFFB0028ECD00449F8
:104A80004FF080500860BFF34F8FBFF36F8FE3E7A5
:104A900004ED00E02DE9FF4782B01D468A464FF045
:104AA0000008040003D0BAF1000F08D011E0502034
:104AB00080F31188BFF34F8FBFF36F8FFEE7206C39
:104AC00038B1502080F31188BFF34F8FBFF36F8F41
:104AD000FEE7022D0AD1E06B012807D0502080F3B9
:104AE0001188BFF34F8FBFF36F8FFEE700F06CFAB2
:104AF0003F4F4FF000094FF0805648B9049838B145
:104B0000502080F31188BFF34F8FBFF36F8FFEE704
:104B1000FFF726FDA06BE16B884207D3022D05D07D
:104B20000498D0B1B8F1000F1AD01EE02A465146C1
:104B30002046FFF7C8F8616A19B104F1240000F0BB
:104B40004BFB20B13E60BFF34F8FBFF36F8FFFF77A
:104B500027FD012006B0BDE8F087FFF721FD22E028
:104B60006846FFF7C1FD4FF00108FFF719FDFFF799
:104B70006BFEFFF7F5FC94F94400401C01D184F86A
:104B8000449094F94500401C01D184F84590FFF70A
:104B900007FD04A9684600F085F930B12046FFF70B
:104BA000E3F900F053FB0020D4E7FFF7D9FCA06B3A
:104BB000E16B884213D1FFF7F3FC04F11000049974
:104BC000FFF7A0FD2046FFF7CFF900F03FFB0028DC
:104BD0009ED13E60BFF34F8FBFF36F8F98E7FFF713
:104BE000DFFC2046FFF7C0F900F030FB90E7000043
:104BF00004ED00E070B50E46040009D0206C78B1D9
:104C0000502080F31188BFF34F8FBFF36F8FFEE703
:104C1000502080F31188BFF34F8FBFF36F8FFEE7F3
:104C2000206848B9606838B1502080F31188BFF31C
:104C30004F8FBFF36F8FFEE7FFF706FD5020EFF3B6
:104C4000118580F31188BFF34F8FBFF36F8FA16B76
:104C5000E06B884218D994F94500491CA163411CB6
:104C600004D0401C84F8450001200EE0606A002852
:104C7000FAD004F1240000F0AFFA0028F4D0002E9E
:104C8000F2D001203060EFE7002085F3118870BD7D
:104C90002DE9F04790468946040003D0B9F1000F92
:104CA00008D011E0502080F31188BFF34F8FBFF37D
:104CB0006F8FFEE7206C38B1502080F31188BFF36E
:104CC0004F8FBFF36F8FFEE7FFF7BEFC5020EFF36F
:104CD000118680F31188BFF34F8FBFF36F8FA76BDF
:104CE000F7B194F9445049462046FEF7D9FF7F1E9C
:104CF000A763681C04D06D1C84F84450012010E0A8
:104D000020690028FAD004F1100000F065FA0028AC
:104D1000F4D0B8F1000FF1D00121C8F80010EDE790
:104D2000002086F31188BDE8F08700002DE9F343E9
:104D3000002683B00400354609D0206C78B150209D
:104D400080F31188BFF34F8FBFF36F8FFEE75020C2
:104D500080F31188BFF34F8FBFF36F8FFEE700F032
:104D600033F9DFF83C814FF000094FF0805748B924
:104D7000049838B1502080F31188BFF34F8FBFF3F0
:104D80006F8FFEE7FFF7ECFBA06BC8B1401EA0637E
:104D9000206810B9FFF78AF96060206950B104F10A
:104DA000100000F019FA28B1C8F80070BFF34F8F57
:104DB000BFF36F8FFFF7F4FB012005B0BDE8F08370
:104DC000049808B166B10FE03DB1502080F311881E
:104DD000BFF34F8FBFF36F8FFEE7FFF7E1FB5DE09F
:104DE0006846FFF781FC0126FFF7DAFBFFF72CFD91
:104DF000FFF7B6FB94F94400401C01D184F84490BD
:104E000094F94500401C01D184F84590FFF7C8FB98
:104E100004A9684600F046F80028204612D0FFF7A3
:104E2000A3F800F013FA2046FFF76CF80028A9D089
:104E30009DB3FFF795FB606A50B3206B0068C0F12B
:104E4000070126E0FFF75EF8E0B1206838B9FFF708
:104E500087FB606800F076F90546FFF7A1FB04F1D7
:104E600024000499FFF74EFC2046FFF77DF800F080
:104E7000EDF9002886D1C8F80070BFF34F8FBFF35B
:104E80006F8F7FE72046FFF76FF800F0DFF979E7D3
:104E900000216068FFF74EFC9FE7FFE700208CE7EA
:104EA00004ED00E02DE9F0410C46050011D0C4B13D
:104EB000FFF756FB174B5A696E682068911B471C19
:104EC00017D02F689B6A9F4219D0964217D80124A9
:104ED00010E0502080F31188BFF34F8FBFF36F8F26
:104EE000FEE7502080F31188BFF34F8FBFF36F8F21
:104EF000FEE70024FFF754FB2046BDE8F08188421E
:104F000005D9401A20602846FFF7EEFBF1E70020A4
:104F10002060DCE7780300202DE9FF5F8346DDE9B0
:104F20000E87994616468A469000FFF753F805000B
:104F30001CD05420FFF74EF8040014D00020256345
:104F400084F85100CDE90240CDE900874B46324656
:104F500051465846FEF769FF2046FEF739FE01200C
:104F600004B0BDE8F09F2846FFF72EFB4FF0FF305E
:104F7000F6E7F0B585B0DDE90B640A9DA6B1DCB1BA
:104F8000542700972663022684F85160002604AF58
:104F9000CDE90246CDE90057FEF747FF2046FEF770
:104FA00017FE049805B0F0BD502080F31188BFF3C0
:104FB0004F8FBFF36F8FFEE7502080F31188BFF350
:104FC0004F8FBFF36F8FFEE70548C16919B1806B42
:104FD00018B1002070470120704702207047000080
:104FE000780300202DE9F0412E4C0027A06B40B142
:104FF000206A401C2062606A00B101273846BDE883
:10500000F0816669761C666113D16068006838B10A
:10501000502080F31188BFF34F8FBFF36F8FFEE7EF
:105020006068A1686160A060A06A401CA062FEF791
:1050300077FF206BDFF87080864209D360680068D4
:1050400080B16068C068C568686886420DD2206318
:105050002068C06A00EB800158F821000128CAD9F5
:105060000127C8E74FF0FF30F1E7281DFFF728FAC6
:10507000A86A18B105F11800FFF722FAE86A0121C1
:10508000A26981401143A16100EB800108EB81001E
:10509000291DFFF759FAE86A2168C96A8842CDD309
:1050A0000127CBE778030020A807002070B5040093
:1050B0004FF0000140D0214D2868844207D0502095
:1050C00080F31188BFF34F8FBFF36F8FFEE7A06CA3
:1050D00038B1401EA064636CE26A9A422CD040B1A1
:1050E0002AE0502080F31188BFF34F8FBFF36F8FFA
:1050F000FEE7201DFFF7E4F9114A012150B9E06AEB
:1051000000EB800352F8233023B9AB6901FA00F0B9
:105110008343AB61606CE062C0F10700A061E06AAC
:10512000AB6981401943A96100EB800002EB80006C
:10513000211DFFF709FA0121084670BD7803002000
:10514000A807002070B504004FF0000038D0204DB3
:10515000E16A2A68D26A914233D2A069002804DB4E
:105160002868C06AC0F10700A0611A4E01EB8101F6
:10517000606906EB810188421ED1201DFFF7A0F96E
:10518000012150B9E06A00EB800256F8222022B9D2
:10519000AA6901FA00F08243AA612868C06AE06245
:1051A000AA6981401143A96100EB800006EB8000F1
:1051B000211DFFF7C9F902E02868C06AE0620120FA
:1051C00070BD616C2A68D26A9142F8D370BD00004C
:1051D00078030020A80700202DE9F041C068C468CA
:1051E000ACB104F118000746FFF76AF9154DA86B3A
:1051F0000126A0B139461448FFF7A6F9E06A2968EC
:10520000C96A88421CD901206E62BDE8F081502035
:1052100080F31188BFF34F8FBFF36F8FFEE7201D20
:10522000FFF74EF9E16AAA6906FA01F01043A86196
:1052300001EB81000449B43901EB8000211DDBE75B
:105240000020E2E7780300205C0800202DE9F04709
:105250002C4D00242746A86B38B1FFF781F9A86BC5
:10526000401EA863A86B40B146E0502080F311882F
:10527000BFF34F8FBFF36F8FFEE72969224E0120E6
:10528000D1B3A6F1B40980463068E8B1F068C468CB
:1052900004F11800FFF714F9201DFFF711F9E06A77
:1052A000AA6908FA00F11143A96100EB800109EB3A
:1052B0008100211DFFF748F9E06A2968C96A884220
:1052C000E2D3C5F82480DFE70CB1FEF729FE2C6A93
:1052D00044B14646FFF786FE00B16E62641EF9D106
:1052E00000202862686A38B1084901273807086039
:1052F000BFF34F8FBFF36F8FFFF752F93846BDE80A
:10530000F0870000780300205C08002004ED00E036
:1053100010B500290AD00878002807D0054878443D
:10532000FBF7C4FD002801D0002010BD02487844DE
:1053300010BD0000320700002A07000010B5002948
:105340000AD00878002807D005487844FBF7AEFD5E
:10535000002801D0002010BD0248784410BD000094
:10536000220700001A0700000808A0F500114FEA04
:105370003101704743004FEAD30C4FEA3C0C4340E5
:105380001FBF40070CF1605113F0FE4F70471CF037
:10539000006F03D100200CF0004170470CF0004377
:1053A00043EA507010B540EACC0000F060F900BF4D
:1053B000000000924FEA0001FFF7D6BF4FF0004116
:1053C0004FF00000A1F500217047000090EA010FA6
:1053D00048BF81F0004100F19C81421A3CBF801A15
:1053E00089184FEAD0524FF07F4C1CEA410FA2EBD4
:1053F000D15318BF9CEA026F00F03B804FF0004C85
:105400004CEA00204CEA012121FA03FC10EB0C0CC1
:105410001ED202F1FF325FEA1C2040EBC25038BFBF
:1054200070471CF07F0F4FEA400C18BFBCF17F4F54
:1054300038BF7047C3F12003994008BF20F0010036
:10544000BCF17F4F38BF7047A0F1C04000F055B9A4
:105450004FEA3C00000A40EBC25028BF1CF0FF0F8F
:105460004FEA400CE6D018BFBCF17F4F38BF704701
:10547000EAE79CEA026F05D010EA5C0F08BF00F073
:105480000040704710B500F0F2F800BF64FBBE3E6C
:10549000014800F0AEB900BF0000C07F41000B0E14
:1054A000D3F19E0208D950F400034FEA032323FAF4
:1054B00002F048BF4042704710B500F0D8F800BF76
:1054C00049922480002070476FF0004282EA200059
:1054D00070470000C10DD1F19E0206DB4FEA0023A8
:1054E00043F0004323FA02F07047004207D54FEA29
:1054F0004001B1F1FE4F02D24FF00000704710B5ED
:1055000000F0B5F849922480002070476FEA20002F
:105510007047000010F0004148BF4042B0FA80F3ED
:1055200010FA03F2C3F19D030BD051EAC35101EB12
:105530001220530638BF704700F1010008BF20F069
:1055400001007047B0FA80F310FA03F2C3F19D0333
:105550000AD0D90501EB1220530638BF704700F17D
:10556000010008BF20F00100704700004FF47F0CDD
:105570001CEAD0121EBF1CEAD11392EA0C0F93EA68
:105580000C0F00F0478090EA010F48BF42F4807290
:105590004FF0004C4CEA00204CEA012102EB0302E0
:1055A000A0FB0113A2F50002002918BF43F001037C
:1055B0005B0028BF4FEA330342EB22425FEA132C21
:1055C0004CEBC2502EBFBCEB436FB2F57C0F704763
:1055D0004FEA036CBCF1004F08BF20F00100B2F5A8
:1055E0007C0F38BF70470BD582F0FF0212F5803F69
:1055F000C8BF704700F1C040D8BF00F000407047FE
:1056000000F5000C5FEA4C0C48BF7047B0F1C04099
:1056100000F073B890EA010F0CEAD11348BF42F4CE
:105620008072624538BF634504D280EA010000F011
:105630000040704710B500F01AF800BF8900013E25
:1056400000F007B800F009B85FEA410C5FEA1C6C93
:1056500008D080EA010000F050B85FEA400C5FEA31
:105660001C6CF6D14FF00040A0F5800070470EF1A1
:10567000020E2EF0030E5EF8044B244204D44FEACF
:105680004102B2F17F4F11D84FEA4003B3F17F4F8F
:105690000CD80ED14FEAD07CB2F17F4F0CEB4C0C02
:1056A0000CF1020C08BF4CEBD17C04E04FF0080C6D
:1056B00001E04FEAD17C0CEB4C0324FA03F404F034
:1056C0000704B4F1040C06D20EEB840CBDE81040C4
:1056D0004CF0010C6047DFE80CF0070802024FF0C5
:1056E0000040A0F5800010BD0846420018BFD2F16E
:1056F000807288BF00F0004010BDFF2141EAD05009
:10570000C005704790EA010F48BF81F000413FF5A6
:1057100064AE421A04D882F00042A0EB02001144A9
:105720004FEAD0524FF07F4C1CEA410FA2EBD1530D
:1057300018BF9CEA026F4AD04FF0004C4CEA0020A0
:105740004CEA012121FA03FCB0EB0C0C0FD412F04F
:10575000FE0F36D05FEA4C001DD5001240EBC25060
:1057600038BF70471CF03F0F18BF70470BE0A2F125
:1057700001025FEA1C2040EBC25038BF70471CF0AA
:105780007F0F18BF7047C3F12003994014BF401E1C
:1057900020F00100704780084FEA122308BF7047CD
:1057A000B0FA80FCA2EB0C02CCF1280C60FA0CF0F1
:1057B00093EA122F04BF00EBC25070474FEAC37048
:1057C0007047130A5FEADC1008BF7047F6E79CEAEF
:1057D000026F04D010EA5C0F08BF0020704710B5BC
:1057E000FFF745FF40DFF63E81F000407047FBF7D2
:1057F0003DB80CF00F03092B08BF082000F05180C2
:105800000A2B0BD0082B18BF704708BF1CF0400FA5
:105810000AD04FF000004FF0000170471CF0400F1D
:1058200018BF4FF0004070471CF0100F08D020F058
:10583000704300F07F4242EAD3014FEA4370704761
:1058400000F0604021F07F4242EA000201F07F4018
:1058500040EA727070474FF0FF0212EAD0521CBF4C
:1058600092F0FF038B42C2BFD14200EBC1507047A0
:10587000002A0AD0002B0BD0002900F00040A4BF62
:1058800040F0FE4040F40000704700F000407047D8
:1058900043024FF00B0C18BF4CF0806C7FF4F8AD56
:1058A00070471CF4801F11D01CF4E02F03D06FEA66
:1058B000CC31490070474FF04050EFF3008222F0A6
:1058C000704242EA000282F3008870474FF0000005
:1058D00070470000245A0008E5300008000000006E
:1058E0000000000080000000000000000000000038
:1058F000045A0008ED2F000801000000000000001D
:10590000800000000000000000000000105A0008A5
:10591000A53000080000000000000000800000002A
:1059200000000000000000001C5A0008BD30000804
:1059300000000000000000008000000000000000E7
:10594000000000000000000000000000010203044D
:105950000607080900000000010203040400000813
:105960000000000000000002000100001000000024
:1059700002400000000000A0000000000540000000
:10598000000000C8000000000C4000000000409C27
:1059900000000000194000000020BCBE0000000014
:1059A00034400000BFC91B8E00000004B540000059
:1059B000504BCFD06607E2CF010000006C410000E1
:1059C0003E8251AADFEEA73401000000D942000058
:1059D000DCB5A0E23A301F97FFFFFFFFB44500009F
:1059E000FD25A0C8E9A3C14FFFFFFFFFFF3F000057
:1059F0000000008000000000FF3F00000000008069
:105A000000000000647331386232305461736B00FF
:105A10006B65797061645461736B000070776D54CD
:105A200061736B00756172745461736B00000000E8
:105A30007C5B000800000020D8030000280100085B
:105A4000505D0008D80300202017000084010008E2
:105A50001C00000043000000F8FFFFFF0C000000E6
:105A60000E0000000F0000002E00000010010000DA
:105A700043000000F8FFFFFF00404040404040402E
:105A80004040414141414140404040404040404011
:105A900040404040404040404005020202020202B5
:105AA0000202020202020202022020202020202004
:105AB0002020200202020202020290909090909018
:105AC00010101010101010101010101010101010D6
:105AD000101010100202020202028888888888884A
